{
  "_format": "hh-sol-artifact-1",
  "contractName": "AcademicMarketplace",
  "sourceName": "contracts/AcademicNFT.sol",
  "abi": [
    {
      "inputs": [
        {
          "internalType": "address",
          "name": "defaultAdmin",
          "type": "address"
        }
      ],
      "stateMutability": "nonpayable",
      "type": "constructor"
    },
    {
      "inputs": [],
      "name": "AccessControlBadConfirmation",
      "type": "error"
    },
    {
      "inputs": [
        {
          "internalType": "address",
          "name": "account",
          "type": "address"
        },
        {
          "internalType": "bytes32",
          "name": "neededRole",
          "type": "bytes32"
        }
      ],
      "name": "AccessControlUnauthorizedAccount",
      "type": "error"
    },
    {
      "inputs": [
        {
          "internalType": "address",
          "name": "sender",
          "type": "address"
        },
        {
          "internalType": "uint256",
          "name": "tokenId",
          "type": "uint256"
        },
        {
          "internalType": "address",
          "name": "owner",
          "type": "address"
        }
      ],
      "name": "ERC721IncorrectOwner",
      "type": "error"
    },
    {
      "inputs": [
        {
          "internalType": "address",
          "name": "operator",
          "type": "address"
        },
        {
          "internalType": "uint256",
          "name": "tokenId",
          "type": "uint256"
        }
      ],
      "name": "ERC721InsufficientApproval",
      "type": "error"
    },
    {
      "inputs": [
        {
          "internalType": "address",
          "name": "approver",
          "type": "address"
        }
      ],
      "name": "ERC721InvalidApprover",
      "type": "error"
    },
    {
      "inputs": [
        {
          "internalType": "address",
          "name": "operator",
          "type": "address"
        }
      ],
      "name": "ERC721InvalidOperator",
      "type": "error"
    },
    {
      "inputs": [
        {
          "internalType": "address",
          "name": "owner",
          "type": "address"
        }
      ],
      "name": "ERC721InvalidOwner",
      "type": "error"
    },
    {
      "inputs": [
        {
          "internalType": "address",
          "name": "receiver",
          "type": "address"
        }
      ],
      "name": "ERC721InvalidReceiver",
      "type": "error"
    },
    {
      "inputs": [
        {
          "internalType": "address",
          "name": "sender",
          "type": "address"
        }
      ],
      "name": "ERC721InvalidSender",
      "type": "error"
    },
    {
      "inputs": [
        {
          "internalType": "uint256",
          "name": "tokenId",
          "type": "uint256"
        }
      ],
      "name": "ERC721NonexistentToken",
      "type": "error"
    },
    {
      "anonymous": false,
      "inputs": [
        {
          "indexed": false,
          "internalType": "uint256",
          "name": "tokenId",
          "type": "uint256"
        },
        {
          "indexed": false,
          "internalType": "address",
          "name": "user",
          "type": "address"
        },
        {
          "indexed": false,
          "internalType": "uint256",
          "name": "expirationTime",
          "type": "uint256"
        }
      ],
      "name": "AccessGranted",
      "type": "event"
    },
    {
      "anonymous": false,
      "inputs": [
        {
          "indexed": false,
          "internalType": "uint256",
          "name": "tokenId",
          "type": "uint256"
        },
        {
          "indexed": false,
          "internalType": "address",
          "name": "user",
          "type": "address"
        }
      ],
      "name": "AccessRevoked",
      "type": "event"
    },
    {
      "anonymous": false,
      "inputs": [
        {
          "indexed": true,
          "internalType": "address",
          "name": "owner",
          "type": "address"
        },
        {
          "indexed": true,
          "internalType": "address",
          "name": "approved",
          "type": "address"
        },
        {
          "indexed": true,
          "internalType": "uint256",
          "name": "tokenId",
          "type": "uint256"
        }
      ],
      "name": "Approval",
      "type": "event"
    },
    {
      "anonymous": false,
      "inputs": [
        {
          "indexed": true,
          "internalType": "address",
          "name": "owner",
          "type": "address"
        },
        {
          "indexed": true,
          "internalType": "address",
          "name": "operator",
          "type": "address"
        },
        {
          "indexed": false,
          "internalType": "bool",
          "name": "approved",
          "type": "bool"
        }
      ],
      "name": "ApprovalForAll",
      "type": "event"
    },
    {
      "anonymous": false,
      "inputs": [
        {
          "indexed": false,
          "internalType": "uint256",
          "name": "tokenId",
          "type": "uint256"
        },
        {
          "indexed": false,
          "internalType": "address",
          "name": "creator",
          "type": "address"
        },
        {
          "indexed": false,
          "internalType": "uint256",
          "name": "price",
          "type": "uint256"
        },
        {
          "indexed": false,
          "internalType": "uint256",
          "name": "duration",
          "type": "uint256"
        }
      ],
      "name": "ContentCreated",
      "type": "event"
    },
    {
      "anonymous": false,
      "inputs": [
        {
          "indexed": true,
          "internalType": "bytes32",
          "name": "role",
          "type": "bytes32"
        },
        {
          "indexed": true,
          "internalType": "bytes32",
          "name": "previousAdminRole",
          "type": "bytes32"
        },
        {
          "indexed": true,
          "internalType": "bytes32",
          "name": "newAdminRole",
          "type": "bytes32"
        }
      ],
      "name": "RoleAdminChanged",
      "type": "event"
    },
    {
      "anonymous": false,
      "inputs": [
        {
          "indexed": true,
          "internalType": "bytes32",
          "name": "role",
          "type": "bytes32"
        },
        {
          "indexed": true,
          "internalType": "address",
          "name": "account",
          "type": "address"
        },
        {
          "indexed": true,
          "internalType": "address",
          "name": "sender",
          "type": "address"
        }
      ],
      "name": "RoleGranted",
      "type": "event"
    },
    {
      "anonymous": false,
      "inputs": [
        {
          "indexed": true,
          "internalType": "bytes32",
          "name": "role",
          "type": "bytes32"
        },
        {
          "indexed": true,
          "internalType": "address",
          "name": "account",
          "type": "address"
        },
        {
          "indexed": true,
          "internalType": "address",
          "name": "sender",
          "type": "address"
        }
      ],
      "name": "RoleRevoked",
      "type": "event"
    },
    {
      "anonymous": false,
      "inputs": [
        {
          "indexed": true,
          "internalType": "address",
          "name": "from",
          "type": "address"
        },
        {
          "indexed": true,
          "internalType": "address",
          "name": "to",
          "type": "address"
        },
        {
          "indexed": true,
          "internalType": "uint256",
          "name": "tokenId",
          "type": "uint256"
        }
      ],
      "name": "Transfer",
      "type": "event"
    },
    {
      "inputs": [],
      "name": "CONTENT_CREATOR_ROLE",
      "outputs": [
        {
          "internalType": "bytes32",
          "name": "",
          "type": "bytes32"
        }
      ],
      "stateMutability": "view",
      "type": "function"
    },
    {
      "inputs": [],
      "name": "DEFAULT_ADMIN_ROLE",
      "outputs": [
        {
          "internalType": "bytes32",
          "name": "",
          "type": "bytes32"
        }
      ],
      "stateMutability": "view",
      "type": "function"
    },
    {
      "inputs": [
        {
          "internalType": "address",
          "name": "to",
          "type": "address"
        },
        {
          "internalType": "uint256",
          "name": "tokenId",
          "type": "uint256"
        }
      ],
      "name": "approve",
      "outputs": [],
      "stateMutability": "nonpayable",
      "type": "function"
    },
    {
      "inputs": [
        {
          "internalType": "address",
          "name": "owner",
          "type": "address"
        }
      ],
      "name": "balanceOf",
      "outputs": [
        {
          "internalType": "uint256",
          "name": "",
          "type": "uint256"
        }
      ],
      "stateMutability": "view",
      "type": "function"
    },
    {
      "inputs": [
        {
          "internalType": "uint256",
          "name": "",
          "type": "uint256"
        },
        {
          "internalType": "address",
          "name": "",
          "type": "address"
        }
      ],
      "name": "contentAccess",
      "outputs": [
        {
          "internalType": "bool",
          "name": "hasAccess",
          "type": "bool"
        },
        {
          "internalType": "uint256",
          "name": "expirationTime",
          "type": "uint256"
        }
      ],
      "stateMutability": "view",
      "type": "function"
    },
    {
      "inputs": [
        {
          "internalType": "uint256",
          "name": "",
          "type": "uint256"
        }
      ],
      "name": "contents",
      "outputs": [
        {
          "internalType": "address",
          "name": "creator",
          "type": "address"
        },
        {
          "internalType": "uint256",
          "name": "price",
          "type": "uint256"
        },
        {
          "internalType": "uint256",
          "name": "duration",
          "type": "uint256"
        },
        {
          "internalType": "string",
          "name": "contentURI",
          "type": "string"
        }
      ],
      "stateMutability": "view",
      "type": "function"
    },
    {
      "inputs": [
        {
          "internalType": "uint256",
          "name": "price",
          "type": "uint256"
        },
        {
          "internalType": "uint256",
          "name": "duration",
          "type": "uint256"
        },
        {
          "internalType": "string",
          "name": "contentURI",
          "type": "string"
        }
      ],
      "name": "createContent",
      "outputs": [
        {
          "internalType": "uint256",
          "name": "",
          "type": "uint256"
        }
      ],
      "stateMutability": "nonpayable",
      "type": "function"
    },
    {
      "inputs": [
        {
          "internalType": "uint256",
          "name": "tokenId",
          "type": "uint256"
        }
      ],
      "name": "getApproved",
      "outputs": [
        {
          "internalType": "address",
          "name": "",
          "type": "address"
        }
      ],
      "stateMutability": "view",
      "type": "function"
    },
    {
      "inputs": [
        {
          "internalType": "uint256",
          "name": "tokenId",
          "type": "uint256"
        }
      ],
      "name": "getContentURI",
      "outputs": [
        {
          "internalType": "string",
          "name": "",
          "type": "string"
        }
      ],
      "stateMutability": "view",
      "type": "function"
    },
    {
      "inputs": [
        {
          "internalType": "bytes32",
          "name": "role",
          "type": "bytes32"
        }
      ],
      "name": "getRoleAdmin",
      "outputs": [
        {
          "internalType": "bytes32",
          "name": "",
          "type": "bytes32"
        }
      ],
      "stateMutability": "view",
      "type": "function"
    },
    {
      "inputs": [
        {
          "internalType": "bytes32",
          "name": "role",
          "type": "bytes32"
        },
        {
          "internalType": "address",
          "name": "account",
          "type": "address"
        }
      ],
      "name": "grantRole",
      "outputs": [],
      "stateMutability": "nonpayable",
      "type": "function"
    },
    {
      "inputs": [
        {
          "internalType": "uint256",
          "name": "tokenId",
          "type": "uint256"
        },
        {
          "internalType": "address",
          "name": "user",
          "type": "address"
        }
      ],
      "name": "hasAccess",
      "outputs": [
        {
          "internalType": "bool",
          "name": "",
          "type": "bool"
        }
      ],
      "stateMutability": "view",
      "type": "function"
    },
    {
      "inputs": [
        {
          "internalType": "bytes32",
          "name": "role",
          "type": "bytes32"
        },
        {
          "internalType": "address",
          "name": "account",
          "type": "address"
        }
      ],
      "name": "hasRole",
      "outputs": [
        {
          "internalType": "bool",
          "name": "",
          "type": "bool"
        }
      ],
      "stateMutability": "view",
      "type": "function"
    },
    {
      "inputs": [
        {
          "internalType": "address",
          "name": "owner",
          "type": "address"
        },
        {
          "internalType": "address",
          "name": "operator",
          "type": "address"
        }
      ],
      "name": "isApprovedForAll",
      "outputs": [
        {
          "internalType": "bool",
          "name": "",
          "type": "bool"
        }
      ],
      "stateMutability": "view",
      "type": "function"
    },
    {
      "inputs": [],
      "name": "name",
      "outputs": [
        {
          "internalType": "string",
          "name": "",
          "type": "string"
        }
      ],
      "stateMutability": "view",
      "type": "function"
    },
    {
      "inputs": [
        {
          "internalType": "uint256",
          "name": "tokenId",
          "type": "uint256"
        }
      ],
      "name": "ownerOf",
      "outputs": [
        {
          "internalType": "address",
          "name": "",
          "type": "address"
        }
      ],
      "stateMutability": "view",
      "type": "function"
    },
    {
      "inputs": [
        {
          "internalType": "uint256",
          "name": "tokenId",
          "type": "uint256"
        }
      ],
      "name": "purchaseAccess",
      "outputs": [],
      "stateMutability": "payable",
      "type": "function"
    },
    {
      "inputs": [
        {
          "internalType": "bytes32",
          "name": "role",
          "type": "bytes32"
        },
        {
          "internalType": "address",
          "name": "callerConfirmation",
          "type": "address"
        }
      ],
      "name": "renounceRole",
      "outputs": [],
      "stateMutability": "nonpayable",
      "type": "function"
    },
    {
      "inputs": [
        {
          "internalType": "uint256",
          "name": "tokenId",
          "type": "uint256"
        },
        {
          "internalType": "address",
          "name": "user",
          "type": "address"
        }
      ],
      "name": "revokeExpiredAccess",
      "outputs": [],
      "stateMutability": "nonpayable",
      "type": "function"
    },
    {
      "inputs": [
        {
          "internalType": "bytes32",
          "name": "role",
          "type": "bytes32"
        },
        {
          "internalType": "address",
          "name": "account",
          "type": "address"
        }
      ],
      "name": "revokeRole",
      "outputs": [],
      "stateMutability": "nonpayable",
      "type": "function"
    },
    {
      "inputs": [
        {
          "internalType": "address",
          "name": "from",
          "type": "address"
        },
        {
          "internalType": "address",
          "name": "to",
          "type": "address"
        },
        {
          "internalType": "uint256",
          "name": "tokenId",
          "type": "uint256"
        }
      ],
      "name": "safeTransferFrom",
      "outputs": [],
      "stateMutability": "nonpayable",
      "type": "function"
    },
    {
      "inputs": [
        {
          "internalType": "address",
          "name": "from",
          "type": "address"
        },
        {
          "internalType": "address",
          "name": "to",
          "type": "address"
        },
        {
          "internalType": "uint256",
          "name": "tokenId",
          "type": "uint256"
        },
        {
          "internalType": "bytes",
          "name": "data",
          "type": "bytes"
        }
      ],
      "name": "safeTransferFrom",
      "outputs": [],
      "stateMutability": "nonpayable",
      "type": "function"
    },
    {
      "inputs": [
        {
          "internalType": "address",
          "name": "operator",
          "type": "address"
        },
        {
          "internalType": "bool",
          "name": "approved",
          "type": "bool"
        }
      ],
      "name": "setApprovalForAll",
      "outputs": [],
      "stateMutability": "nonpayable",
      "type": "function"
    },
    {
      "inputs": [
        {
          "internalType": "bytes4",
          "name": "interfaceId",
          "type": "bytes4"
        }
      ],
      "name": "supportsInterface",
      "outputs": [
        {
          "internalType": "bool",
          "name": "",
          "type": "bool"
        }
      ],
      "stateMutability": "view",
      "type": "function"
    },
    {
      "inputs": [],
      "name": "symbol",
      "outputs": [
        {
          "internalType": "string",
          "name": "",
          "type": "string"
        }
      ],
      "stateMutability": "view",
      "type": "function"
    },
    {
      "inputs": [
        {
          "internalType": "uint256",
          "name": "tokenId",
          "type": "uint256"
        }
      ],
      "name": "tokenURI",
      "outputs": [
        {
          "internalType": "string",
          "name": "",
          "type": "string"
        }
      ],
      "stateMutability": "view",
      "type": "function"
    },
    {
      "inputs": [
        {
          "internalType": "address",
          "name": "from",
          "type": "address"
        },
        {
          "internalType": "address",
          "name": "to",
          "type": "address"
        },
        {
          "internalType": "uint256",
          "name": "tokenId",
          "type": "uint256"
        }
      ],
      "name": "transferFrom",
      "outputs": [],
      "stateMutability": "nonpayable",
      "type": "function"
    }
  ],
  "bytecode": "0x608060405234801561001057600080fd5b50604051613eec380380613eec833981810160405281019061003291906102ae565b6040518060400160405280601381526020017f41636164656d69634d61726b6574706c616365000000000000000000000000008152506040518060400160405280600381526020017f41434d000000000000000000000000000000000000000000000000000000000081525081600090816100ad919061052b565b5080600190816100bd919061052b565b5050506100d36000801b826100da60201b60201c565b50506105fd565b60006100ec83836101d860201b60201c565b6101cd5760016006600085815260200190815260200160002060000160008473ffffffffffffffffffffffffffffffffffffffff1673ffffffffffffffffffffffffffffffffffffffff16815260200190815260200160002060006101000a81548160ff02191690831515021790555061016a61024360201b60201c565b73ffffffffffffffffffffffffffffffffffffffff168273ffffffffffffffffffffffffffffffffffffffff16847f2f8788117e7eff1d82e926ec794901d17c78024a50270940304540a733656f0d60405160405180910390a4600190506101d2565b600090505b92915050565b60006006600084815260200190815260200160002060000160008373ffffffffffffffffffffffffffffffffffffffff1673ffffffffffffffffffffffffffffffffffffffff16815260200190815260200160002060009054906101000a900460ff16905092915050565b600033905090565b600080fd5b600073ffffffffffffffffffffffffffffffffffffffff82169050919050565b600061027b82610250565b9050919050565b61028b81610270565b811461029657600080fd5b50565b6000815190506102a881610282565b92915050565b6000602082840312156102c4576102c361024b565b5b60006102d284828501610299565b91505092915050565b600081519050919050565b7f4e487b7100000000000000000000000000000000000000000000000000000000600052604160045260246000fd5b7f4e487b7100000000000000000000000000000000000000000000000000000000600052602260045260246000fd5b6000600282049050600182168061035c57607f821691505b60208210810361036f5761036e610315565b5b50919050565b60008190508160005260206000209050919050565b60006020601f8301049050919050565b600082821b905092915050565b6000600883026103d77fffffffffffffffffffffffffffffffffffffffffffffffffffffffffffffffff8261039a565b6103e1868361039a565b95508019841693508086168417925050509392505050565b6000819050919050565b6000819050919050565b600061042861042361041e846103f9565b610403565b6103f9565b9050919050565b6000819050919050565b6104428361040d565b61045661044e8261042f565b8484546103a7565b825550505050565b600090565b61046b61045e565b610476818484610439565b505050565b5b8181101561049a5761048f600082610463565b60018101905061047c565b5050565b601f8211156104df576104b081610375565b6104b98461038a565b810160208510156104c8578190505b6104dc6104d48561038a565b83018261047b565b50505b505050565b600082821c905092915050565b6000610502600019846008026104e4565b1980831691505092915050565b600061051b83836104f1565b9150826002028217905092915050565b610534826102db565b67ffffffffffffffff81111561054d5761054c6102e6565b5b6105578254610344565b61056282828561049e565b600060209050601f8311600181146105955760008415610583578287015190505b61058d858261050f565b8655506105f5565b601f1984166105a386610375565b60005b828110156105cb578489015182556001820191506020850194506020810190506105a6565b868310156105e857848901516105e4601f8916826104f1565b8355505b6001600288020188555050505b505050505050565b6138e08061060c6000396000f3fe60806040526004361061019c5760003560e01c80637cc53570116100ec578063b5ecf9121161008a578063c87b56dd11610064578063c87b56dd14610617578063ced1419814610654578063d547741f14610691578063e985e9c5146106ba5761019c565b8063b5ecf91214610592578063b88d4fde146105d2578063b91d0a2f146105fb5761019c565b806391d14854116100c657806391d14854146104d657806395d89b4114610513578063a217fddf1461053e578063a22cb465146105695761019c565b80637cc535701461043357806382a3a6501461047057806390cd5819146104995761019c565b8063248a9ca3116101595780633e5ffa75116101335780633e5ffa751461035257806342842e0e146103905780636352211e146103b957806370a08231146103f65761019c565b8063248a9ca3146102c35780632f2ff15d1461030057806336568abe146103295761019c565b806301ffc9a7146101a157806306fdde03146101de578063081812fc14610209578063095ea7b31461024657806322b561491461026f57806323b872dd1461029a575b600080fd5b3480156101ad57600080fd5b506101c860048036038101906101c3919061281d565b6106f7565b6040516101d59190612865565b60405180910390f35b3480156101ea57600080fd5b506101f3610709565b6040516102009190612910565b60405180910390f35b34801561021557600080fd5b50610230600480360381019061022b9190612968565b61079b565b60405161023d91906129d6565b60405180910390f35b34801561025257600080fd5b5061026d60048036038101906102689190612a1d565b6107b7565b005b34801561027b57600080fd5b506102846107cd565b6040516102919190612a76565b60405180910390f35b3480156102a657600080fd5b506102c160048036038101906102bc9190612a91565b6107f1565b005b3480156102cf57600080fd5b506102ea60048036038101906102e59190612b10565b6108f3565b6040516102f79190612a76565b60405180910390f35b34801561030c57600080fd5b5061032760048036038101906103229190612b3d565b610913565b005b34801561033557600080fd5b50610350600480360381019061034b9190612b3d565b610935565b005b34801561035e57600080fd5b5061037960048036038101906103749190612b7d565b6109b0565b604051610387929190612bcc565b60405180910390f35b34801561039c57600080fd5b506103b760048036038101906103b29190612a91565b6109ee565b005b3480156103c557600080fd5b506103e060048036038101906103db9190612968565b610a0e565b6040516103ed91906129d6565b60405180910390f35b34801561040257600080fd5b5061041d60048036038101906104189190612bf5565b610a20565b60405161042a9190612c22565b60405180910390f35b34801561043f57600080fd5b5061045a60048036038101906104559190612968565b610ada565b6040516104679190612910565b60405180910390f35b34801561047c57600080fd5b5061049760048036038101906104929190612b7d565b610c13565b005b3480156104a557600080fd5b506104c060048036038101906104bb9190612d72565b610da2565b6040516104cd9190612c22565b60405180910390f35b3480156104e257600080fd5b506104fd60048036038101906104f89190612b3d565b610efa565b60405161050a9190612865565b60405180910390f35b34801561051f57600080fd5b50610528610f65565b6040516105359190612910565b60405180910390f35b34801561054a57600080fd5b50610553610ff7565b6040516105609190612a76565b60405180910390f35b34801561057557600080fd5b50610590600480360381019061058b9190612e0d565b610ffe565b005b34801561059e57600080fd5b506105b960048036038101906105b49190612968565b611014565b6040516105c99493929190612e4d565b60405180910390f35b3480156105de57600080fd5b506105f960048036038101906105f49190612f3a565b6110ec565b005b61061560048036038101906106109190612968565b611109565b005b34801561062357600080fd5b5061063e60048036038101906106399190612968565b61141c565b60405161064b9190612910565b60405180910390f35b34801561066057600080fd5b5061067b60048036038101906106769190612b7d565b611485565b6040516106889190612865565b60405180910390f35b34801561069d57600080fd5b506106b860048036038101906106b39190612b3d565b611527565b005b3480156106c657600080fd5b506106e160048036038101906106dc9190612fbd565b611549565b6040516106ee9190612865565b60405180910390f35b6000610702826115dd565b9050919050565b6060600080546107189061302c565b80601f01602080910402602001604051908101604052809291908181526020018280546107449061302c565b80156107915780601f1061076657610100808354040283529160200191610791565b820191906000526020600020905b81548152906001019060200180831161077457829003601f168201915b5050505050905090565b60006107a682611657565b506107b0826116df565b9050919050565b6107c982826107c461171c565b611724565b5050565b7f6b46296611f8ff3c0cf0ac1ab745d68c36a910c45b1b5f4e5f72b693d33667f581565b600073ffffffffffffffffffffffffffffffffffffffff168273ffffffffffffffffffffffffffffffffffffffff16036108635760006040517f64a0ae9200000000000000000000000000000000000000000000000000000000815260040161085a91906129d6565b60405180910390fd5b6000610877838361087261171c565b611736565b90508373ffffffffffffffffffffffffffffffffffffffff168173ffffffffffffffffffffffffffffffffffffffff16146108ed578382826040517f64283d7b0000000000000000000000000000000000000000000000000000000081526004016108e49392919061305d565b60405180910390fd5b50505050565b600060066000838152602001908152602001600020600101549050919050565b61091c826108f3565b61092581611950565b61092f8383611964565b50505050565b61093d61171c565b73ffffffffffffffffffffffffffffffffffffffff168173ffffffffffffffffffffffffffffffffffffffff16146109a1576040517f6697b23200000000000000000000000000000000000000000000000000000000815260040160405180910390fd5b6109ab8282611a56565b505050565b6009602052816000526040600020602052806000526040600020600091509150508060000160009054906101000a900460ff16908060010154905082565b610a09838383604051806020016040528060008152506110ec565b505050565b6000610a1982611657565b9050919050565b60008073ffffffffffffffffffffffffffffffffffffffff168273ffffffffffffffffffffffffffffffffffffffff1603610a935760006040517f89c62b64000000000000000000000000000000000000000000000000000000008152600401610a8a91906129d6565b60405180910390fd5b600360008373ffffffffffffffffffffffffffffffffffffffff1673ffffffffffffffffffffffffffffffffffffffff168152602001908152602001600020549050919050565b6060610ae582611b49565b610b24576040517f08c379a0000000000000000000000000000000000000000000000000000000008152600401610b1b906130e0565b60405180910390fd5b610b2e8233611485565b610b6d576040517f08c379a0000000000000000000000000000000000000000000000000000000008152600401610b6490613172565b60405180910390fd5b600860008381526020019081526020016000206003018054610b8e9061302c565b80601f0160208091040260200160405190810160405280929190818152602001828054610bba9061302c565b8015610c075780601f10610bdc57610100808354040283529160200191610c07565b820191906000526020600020905b815481529060010190602001808311610bea57829003601f168201915b50505050509050919050565b610c1c82611b49565b610c5b576040517f08c379a0000000000000000000000000000000000000000000000000000000008152600401610c52906130e0565b60405180910390fd5b60006009600084815260200190815260200160002060008373ffffffffffffffffffffffffffffffffffffffff1673ffffffffffffffffffffffffffffffffffffffff16815260200190815260200160002090508060000160009054906101000a900460ff16610d00576040517f08c379a0000000000000000000000000000000000000000000000000000000008152600401610cf7906131de565b60405180910390fd5b4281600101541115610d47576040517f08c379a0000000000000000000000000000000000000000000000000000000008152600401610d3e9061324a565b60405180910390fd5b60008160000160006101000a81548160ff0219169083151502179055507f125883b94692baebecad9f111ed97ffa626523bbbadc6b0ef85ee1b56b9e52d58383604051610d9592919061326a565b60405180910390a1505050565b60007f6b46296611f8ff3c0cf0ac1ab745d68c36a910c45b1b5f4e5f72b693d33667f5610dce81611950565b600060076000815480929190610de3906132c2565b919050559050610df33382611bd6565b60405180608001604052803373ffffffffffffffffffffffffffffffffffffffff168152602001878152602001868152602001858152506008600083815260200190815260200160002060008201518160000160006101000a81548173ffffffffffffffffffffffffffffffffffffffff021916908373ffffffffffffffffffffffffffffffffffffffff16021790555060208201518160010155604082015181600201556060820151816003019081610ead91906134b6565b509050507fddd0b28e5fb3869276497df1d99d9d598bbfb250274bc5bba78f9ee994028f0281338888604051610ee69493929190613588565b60405180910390a180925050509392505050565b60006006600084815260200190815260200160002060000160008373ffffffffffffffffffffffffffffffffffffffff1673ffffffffffffffffffffffffffffffffffffffff16815260200190815260200160002060009054906101000a900460ff16905092915050565b606060018054610f749061302c565b80601f0160208091040260200160405190810160405280929190818152602001828054610fa09061302c565b8015610fed5780601f10610fc257610100808354040283529160200191610fed565b820191906000526020600020905b815481529060010190602001808311610fd057829003601f168201915b5050505050905090565b6000801b81565b61101061100961171c565b8383611bf4565b5050565b60086020528060005260406000206000915090508060000160009054906101000a900473ffffffffffffffffffffffffffffffffffffffff16908060010154908060020154908060030180546110699061302c565b80601f01602080910402602001604051908101604052809291908181526020018280546110959061302c565b80156110e25780601f106110b7576101008083540402835291602001916110e2565b820191906000526020600020905b8154815290600101906020018083116110c557829003601f168201915b5050505050905084565b6110f78484846107f1565b61110384848484611d63565b50505050565b61111281611b49565b611151576040517f08c379a0000000000000000000000000000000000000000000000000000000008152600401611148906130e0565b60405180910390fd5b6000600860008381526020019081526020016000206040518060800160405290816000820160009054906101000a900473ffffffffffffffffffffffffffffffffffffffff1673ffffffffffffffffffffffffffffffffffffffff1673ffffffffffffffffffffffffffffffffffffffff16815260200160018201548152602001600282015481526020016003820180546111eb9061302c565b80601f01602080910402602001604051908101604052809291908181526020018280546112179061302c565b80156112645780601f1061123957610100808354040283529160200191611264565b820191906000526020600020905b81548152906001019060200180831161124757829003601f168201915b505050505081525050905080602001513410156112b6576040517f08c379a00000000000000000000000000000000000000000000000000000000081526004016112ad90613619565b60405180910390fd5b6000808260400151146112d8578160400151426112d39190613639565b6112fa565b7fffffffffffffffffffffffffffffffffffffffffffffffffffffffffffffffff5b90506040518060400160405280600115158152602001828152506009600085815260200190815260200160002060003373ffffffffffffffffffffffffffffffffffffffff1673ffffffffffffffffffffffffffffffffffffffff16815260200190815260200160002060008201518160000160006101000a81548160ff02191690831515021790555060208201518160010155905050816000015173ffffffffffffffffffffffffffffffffffffffff166108fc349081150290604051600060405180830381858888f193505050501580156113db573d6000803e3d6000fd5b507fc56e8aa8e9f4284830fd4657bc77d60640af2ec679f2099faf320ee4202ff42283338360405161140f9392919061366d565b60405180910390a1505050565b606061142782611657565b506000611432611f1a565b90506000815111611452576040518060200160405280600081525061147d565b8061145c84611f57565b60405160200161146d9291906136e0565b6040516020818303038152906040525b915050919050565b6000806009600085815260200190815260200160002060008473ffffffffffffffffffffffffffffffffffffffff1673ffffffffffffffffffffffffffffffffffffffff1681526020019081526020016000206040518060400160405290816000820160009054906101000a900460ff1615151515815260200160018201548152505090508060000151801561151e5750428160200151115b91505092915050565b611530826108f3565b61153981611950565b6115438383611a56565b50505050565b6000600560008473ffffffffffffffffffffffffffffffffffffffff1673ffffffffffffffffffffffffffffffffffffffff16815260200190815260200160002060008373ffffffffffffffffffffffffffffffffffffffff1673ffffffffffffffffffffffffffffffffffffffff16815260200190815260200160002060009054906101000a900460ff16905092915050565b60007f7965db0b000000000000000000000000000000000000000000000000000000007bffffffffffffffffffffffffffffffffffffffffffffffffffffffff1916827bffffffffffffffffffffffffffffffffffffffffffffffffffffffff19161480611650575061164f82612025565b5b9050919050565b60008061166383612107565b9050600073ffffffffffffffffffffffffffffffffffffffff168173ffffffffffffffffffffffffffffffffffffffff16036116d657826040517f7e2732890000000000000000000000000000000000000000000000000000000081526004016116cd9190612c22565b60405180910390fd5b80915050919050565b60006004600083815260200190815260200160002060009054906101000a900473ffffffffffffffffffffffffffffffffffffffff169050919050565b600033905090565b6117318383836001612144565b505050565b60008061174284612107565b9050600073ffffffffffffffffffffffffffffffffffffffff168373ffffffffffffffffffffffffffffffffffffffff161461178457611783818486612309565b5b600073ffffffffffffffffffffffffffffffffffffffff168173ffffffffffffffffffffffffffffffffffffffff1614611815576117c6600085600080612144565b6001600360008373ffffffffffffffffffffffffffffffffffffffff1673ffffffffffffffffffffffffffffffffffffffff168152602001908152602001600020600082825403925050819055505b600073ffffffffffffffffffffffffffffffffffffffff168573ffffffffffffffffffffffffffffffffffffffff1614611898576001600360008773ffffffffffffffffffffffffffffffffffffffff1673ffffffffffffffffffffffffffffffffffffffff168152602001908152602001600020600082825401925050819055505b846002600086815260200190815260200160002060006101000a81548173ffffffffffffffffffffffffffffffffffffffff021916908373ffffffffffffffffffffffffffffffffffffffff160217905550838573ffffffffffffffffffffffffffffffffffffffff168273ffffffffffffffffffffffffffffffffffffffff167fddf252ad1be2c89b69c2b068fc378daa952ba7f163c4a11628f55a4df523b3ef60405160405180910390a4809150509392505050565b6119618161195c61171c565b6123cd565b50565b60006119708383610efa565b611a4b5760016006600085815260200190815260200160002060000160008473ffffffffffffffffffffffffffffffffffffffff1673ffffffffffffffffffffffffffffffffffffffff16815260200190815260200160002060006101000a81548160ff0219169083151502179055506119e861171c565b73ffffffffffffffffffffffffffffffffffffffff168273ffffffffffffffffffffffffffffffffffffffff16847f2f8788117e7eff1d82e926ec794901d17c78024a50270940304540a733656f0d60405160405180910390a460019050611a50565b600090505b92915050565b6000611a628383610efa565b15611b3e5760006006600085815260200190815260200160002060000160008473ffffffffffffffffffffffffffffffffffffffff1673ffffffffffffffffffffffffffffffffffffffff16815260200190815260200160002060006101000a81548160ff021916908315150217905550611adb61171c565b73ffffffffffffffffffffffffffffffffffffffff168273ffffffffffffffffffffffffffffffffffffffff16847ff6391f5c32d9c69d2a47ea670b442974b53935d1edc7fd64eb21e047a839171b60405160405180910390a460019050611b43565b600090505b92915050565b60003073ffffffffffffffffffffffffffffffffffffffff16636352211e836040518263ffffffff1660e01b8152600401611b849190612c22565b602060405180830381865afa925050508015611bbe57506040513d601f19601f82011682018060405250810190611bbb9190613719565b60015b611bcb5760009050611bd1565b60019150505b919050565b611bf082826040518060200160405280600081525061241e565b5050565b600073ffffffffffffffffffffffffffffffffffffffff168273ffffffffffffffffffffffffffffffffffffffff1603611c6557816040517f5b08ba18000000000000000000000000000000000000000000000000000000008152600401611c5c91906129d6565b60405180910390fd5b80600560008573ffffffffffffffffffffffffffffffffffffffff1673ffffffffffffffffffffffffffffffffffffffff16815260200190815260200160002060008473ffffffffffffffffffffffffffffffffffffffff1673ffffffffffffffffffffffffffffffffffffffff16815260200190815260200160002060006101000a81548160ff0219169083151502179055508173ffffffffffffffffffffffffffffffffffffffff168373ffffffffffffffffffffffffffffffffffffffff167f17307eab39ab6107e8899845ad3d59bd9653f200f220920489ca2b5937696c3183604051611d569190612865565b60405180910390a3505050565b60008373ffffffffffffffffffffffffffffffffffffffff163b1115611f14578273ffffffffffffffffffffffffffffffffffffffff1663150b7a02611da761171c565b8685856040518563ffffffff1660e01b8152600401611dc9949392919061379b565b6020604051808303816000875af1925050508015611e0557506040513d601f19601f82011682018060405250810190611e0291906137fc565b60015b611e89573d8060008114611e35576040519150601f19603f3d011682016040523d82523d6000602084013e611e3a565b606091505b506000815103611e8157836040517f64a0ae92000000000000000000000000000000000000000000000000000000008152600401611e7891906129d6565b60405180910390fd5b805181602001fd5b63150b7a0260e01b7bffffffffffffffffffffffffffffffffffffffffffffffffffffffff1916817bffffffffffffffffffffffffffffffffffffffffffffffffffffffff191614611f1257836040517f64a0ae92000000000000000000000000000000000000000000000000000000008152600401611f0991906129d6565b60405180910390fd5b505b50505050565b60606040518060400160405280600781526020017f697066733a2f2f00000000000000000000000000000000000000000000000000815250905090565b606060006001611f668461243a565b01905060008167ffffffffffffffff811115611f8557611f84612c47565b5b6040519080825280601f01601f191660200182016040528015611fb75781602001600182028036833780820191505090505b509050600082602001820190505b60011561201a578080600190039150507f3031323334353637383961626364656600000000000000000000000000000000600a86061a8153600a858161200e5761200d613829565b5b04945060008503611fc5575b819350505050919050565b60007f80ac58cd000000000000000000000000000000000000000000000000000000007bffffffffffffffffffffffffffffffffffffffffffffffffffffffff1916827bffffffffffffffffffffffffffffffffffffffffffffffffffffffff191614806120f057507f5b5e139f000000000000000000000000000000000000000000000000000000007bffffffffffffffffffffffffffffffffffffffffffffffffffffffff1916827bffffffffffffffffffffffffffffffffffffffffffffffffffffffff1916145b8061210057506120ff8261258d565b5b9050919050565b60006002600083815260200190815260200160002060009054906101000a900473ffffffffffffffffffffffffffffffffffffffff169050919050565b808061217d5750600073ffffffffffffffffffffffffffffffffffffffff168273ffffffffffffffffffffffffffffffffffffffff1614155b156122b157600061218d84611657565b9050600073ffffffffffffffffffffffffffffffffffffffff168373ffffffffffffffffffffffffffffffffffffffff16141580156121f857508273ffffffffffffffffffffffffffffffffffffffff168173ffffffffffffffffffffffffffffffffffffffff1614155b801561220b57506122098184611549565b155b1561224d57826040517fa9fbf51f00000000000000000000000000000000000000000000000000000000815260040161224491906129d6565b60405180910390fd5b81156122af57838573ffffffffffffffffffffffffffffffffffffffff168273ffffffffffffffffffffffffffffffffffffffff167f8c5be1e5ebec7d5bd14f71427d1e84f3dd0314c0f7b2291e5b200ac8c7c3b92560405160405180910390a45b505b836004600085815260200190815260200160002060006101000a81548173ffffffffffffffffffffffffffffffffffffffff021916908373ffffffffffffffffffffffffffffffffffffffff16021790555050505050565b6123148383836125f7565b6123c857600073ffffffffffffffffffffffffffffffffffffffff168373ffffffffffffffffffffffffffffffffffffffff160361238957806040517f7e2732890000000000000000000000000000000000000000000000000000000081526004016123809190612c22565b60405180910390fd5b81816040517f177e802f0000000000000000000000000000000000000000000000000000000081526004016123bf929190613858565b60405180910390fd5b505050565b6123d78282610efa565b61241a5780826040517fe2517d3f000000000000000000000000000000000000000000000000000000008152600401612411929190613881565b60405180910390fd5b5050565b61242883836126b8565b6124356000848484611d63565b505050565b600080600090507a184f03e93ff9f4daa797ed6e38ed64bf6a1f0100000000000000008310612498577a184f03e93ff9f4daa797ed6e38ed64bf6a1f010000000000000000838161248e5761248d613829565b5b0492506040810190505b6d04ee2d6d415b85acef810000000083106124d5576d04ee2d6d415b85acef810000000083816124cb576124ca613829565b5b0492506020810190505b662386f26fc10000831061250457662386f26fc1000083816124fa576124f9613829565b5b0492506010810190505b6305f5e100831061252d576305f5e100838161252357612522613829565b5b0492506008810190505b612710831061255257612710838161254857612547613829565b5b0492506004810190505b60648310612575576064838161256b5761256a613829565b5b0492506002810190505b600a8310612584576001810190505b80915050919050565b60007f01ffc9a7000000000000000000000000000000000000000000000000000000007bffffffffffffffffffffffffffffffffffffffffffffffffffffffff1916827bffffffffffffffffffffffffffffffffffffffffffffffffffffffff1916149050919050565b60008073ffffffffffffffffffffffffffffffffffffffff168373ffffffffffffffffffffffffffffffffffffffff16141580156126af57508273ffffffffffffffffffffffffffffffffffffffff168473ffffffffffffffffffffffffffffffffffffffff161480612670575061266f8484611549565b5b806126ae57508273ffffffffffffffffffffffffffffffffffffffff16612696836116df565b73ffffffffffffffffffffffffffffffffffffffff16145b5b90509392505050565b600073ffffffffffffffffffffffffffffffffffffffff168273ffffffffffffffffffffffffffffffffffffffff160361272a5760006040517f64a0ae9200000000000000000000000000000000000000000000000000000000815260040161272191906129d6565b60405180910390fd5b600061273883836000611736565b9050600073ffffffffffffffffffffffffffffffffffffffff168173ffffffffffffffffffffffffffffffffffffffff16146127ac5760006040517f73c6ac6e0000000000000000000000000000000000000000000000000000000081526004016127a391906129d6565b60405180910390fd5b505050565b6000604051905090565b600080fd5b600080fd5b60007fffffffff0000000000000000000000000000000000000000000000000000000082169050919050565b6127fa816127c5565b811461280557600080fd5b50565b600081359050612817816127f1565b92915050565b600060208284031215612833576128326127bb565b5b600061284184828501612808565b91505092915050565b60008115159050919050565b61285f8161284a565b82525050565b600060208201905061287a6000830184612856565b92915050565b600081519050919050565b600082825260208201905092915050565b60005b838110156128ba57808201518184015260208101905061289f565b60008484015250505050565b6000601f19601f8301169050919050565b60006128e282612880565b6128ec818561288b565b93506128fc81856020860161289c565b612905816128c6565b840191505092915050565b6000602082019050818103600083015261292a81846128d7565b905092915050565b6000819050919050565b61294581612932565b811461295057600080fd5b50565b6000813590506129628161293c565b92915050565b60006020828403121561297e5761297d6127bb565b5b600061298c84828501612953565b91505092915050565b600073ffffffffffffffffffffffffffffffffffffffff82169050919050565b60006129c082612995565b9050919050565b6129d0816129b5565b82525050565b60006020820190506129eb60008301846129c7565b92915050565b6129fa816129b5565b8114612a0557600080fd5b50565b600081359050612a17816129f1565b92915050565b60008060408385031215612a3457612a336127bb565b5b6000612a4285828601612a08565b9250506020612a5385828601612953565b9150509250929050565b6000819050919050565b612a7081612a5d565b82525050565b6000602082019050612a8b6000830184612a67565b92915050565b600080600060608486031215612aaa57612aa96127bb565b5b6000612ab886828701612a08565b9350506020612ac986828701612a08565b9250506040612ada86828701612953565b9150509250925092565b612aed81612a5d565b8114612af857600080fd5b50565b600081359050612b0a81612ae4565b92915050565b600060208284031215612b2657612b256127bb565b5b6000612b3484828501612afb565b91505092915050565b60008060408385031215612b5457612b536127bb565b5b6000612b6285828601612afb565b9250506020612b7385828601612a08565b9150509250929050565b60008060408385031215612b9457612b936127bb565b5b6000612ba285828601612953565b9250506020612bb385828601612a08565b9150509250929050565b612bc681612932565b82525050565b6000604082019050612be16000830185612856565b612bee6020830184612bbd565b9392505050565b600060208284031215612c0b57612c0a6127bb565b5b6000612c1984828501612a08565b91505092915050565b6000602082019050612c376000830184612bbd565b92915050565b600080fd5b600080fd5b7f4e487b7100000000000000000000000000000000000000000000000000000000600052604160045260246000fd5b612c7f826128c6565b810181811067ffffffffffffffff82111715612c9e57612c9d612c47565b5b80604052505050565b6000612cb16127b1565b9050612cbd8282612c76565b919050565b600067ffffffffffffffff821115612cdd57612cdc612c47565b5b612ce6826128c6565b9050602081019050919050565b82818337600083830152505050565b6000612d15612d1084612cc2565b612ca7565b905082815260208101848484011115612d3157612d30612c42565b5b612d3c848285612cf3565b509392505050565b600082601f830112612d5957612d58612c3d565b5b8135612d69848260208601612d02565b91505092915050565b600080600060608486031215612d8b57612d8a6127bb565b5b6000612d9986828701612953565b9350506020612daa86828701612953565b925050604084013567ffffffffffffffff811115612dcb57612dca6127c0565b5b612dd786828701612d44565b9150509250925092565b612dea8161284a565b8114612df557600080fd5b50565b600081359050612e0781612de1565b92915050565b60008060408385031215612e2457612e236127bb565b5b6000612e3285828601612a08565b9250506020612e4385828601612df8565b9150509250929050565b6000608082019050612e6260008301876129c7565b612e6f6020830186612bbd565b612e7c6040830185612bbd565b8181036060830152612e8e81846128d7565b905095945050505050565b600067ffffffffffffffff821115612eb457612eb3612c47565b5b612ebd826128c6565b9050602081019050919050565b6000612edd612ed884612e99565b612ca7565b905082815260208101848484011115612ef957612ef8612c42565b5b612f04848285612cf3565b509392505050565b600082601f830112612f2157612f20612c3d565b5b8135612f31848260208601612eca565b91505092915050565b60008060008060808587031215612f5457612f536127bb565b5b6000612f6287828801612a08565b9450506020612f7387828801612a08565b9350506040612f8487828801612953565b925050606085013567ffffffffffffffff811115612fa557612fa46127c0565b5b612fb187828801612f0c565b91505092959194509250565b60008060408385031215612fd457612fd36127bb565b5b6000612fe285828601612a08565b9250506020612ff385828601612a08565b9150509250929050565b7f4e487b7100000000000000000000000000000000000000000000000000000000600052602260045260246000fd5b6000600282049050600182168061304457607f821691505b60208210810361305757613056612ffd565b5b50919050565b600060608201905061307260008301866129c7565b61307f6020830185612bbd565b61308c60408301846129c7565b949350505050565b7f436f6e74656e7420646f6573206e6f7420657869737400000000000000000000600082015250565b60006130ca60168361288b565b91506130d582613094565b602082019050919050565b600060208201905081810360008301526130f9816130bd565b9050919050565b7f596f7520646f206e6f7420686176652061636365737320746f2074686973206360008201527f6f6e74656e740000000000000000000000000000000000000000000000000000602082015250565b600061315c60268361288b565b915061316782613100565b604082019050919050565b6000602082019050818103600083015261318b8161314f565b9050919050565b7f5573657220646f6573206e6f7420686176652061636365737300000000000000600082015250565b60006131c860198361288b565b91506131d382613192565b602082019050919050565b600060208201905081810360008301526131f7816131bb565b9050919050565b7f41636365737320686173206e6f74206578706972656420796574000000000000600082015250565b6000613234601a8361288b565b915061323f826131fe565b602082019050919050565b6000602082019050818103600083015261326381613227565b9050919050565b600060408201905061327f6000830185612bbd565b61328c60208301846129c7565b9392505050565b7f4e487b7100000000000000000000000000000000000000000000000000000000600052601160045260246000fd5b60006132cd82612932565b91507fffffffffffffffffffffffffffffffffffffffffffffffffffffffffffffffff82036132ff576132fe613293565b5b600182019050919050565b60008190508160005260206000209050919050565b60006020601f8301049050919050565b600082821b905092915050565b60006008830261336c7fffffffffffffffffffffffffffffffffffffffffffffffffffffffffffffffff8261332f565b613376868361332f565b95508019841693508086168417925050509392505050565b6000819050919050565b60006133b36133ae6133a984612932565b61338e565b612932565b9050919050565b6000819050919050565b6133cd83613398565b6133e16133d9826133ba565b84845461333c565b825550505050565b600090565b6133f66133e9565b6134018184846133c4565b505050565b5b818110156134255761341a6000826133ee565b600181019050613407565b5050565b601f82111561346a5761343b8161330a565b6134448461331f565b81016020851015613453578190505b61346761345f8561331f565b830182613406565b50505b505050565b600082821c905092915050565b600061348d6000198460080261346f565b1980831691505092915050565b60006134a6838361347c565b9150826002028217905092915050565b6134bf82612880565b67ffffffffffffffff8111156134d8576134d7612c47565b5b6134e2825461302c565b6134ed828285613429565b600060209050601f831160018114613520576000841561350e578287015190505b613518858261349a565b865550613580565b601f19841661352e8661330a565b60005b8281101561355657848901518255600182019150602085019450602081019050613531565b86831015613573578489015161356f601f89168261347c565b8355505b6001600288020188555050505b505050505050565b600060808201905061359d6000830187612bbd565b6135aa60208301866129c7565b6135b76040830185612bbd565b6135c46060830184612bbd565b95945050505050565b7f496e73756666696369656e74207061796d656e74000000000000000000000000600082015250565b600061360360148361288b565b915061360e826135cd565b602082019050919050565b60006020820190508181036000830152613632816135f6565b9050919050565b600061364482612932565b915061364f83612932565b925082820190508082111561366757613666613293565b5b92915050565b60006060820190506136826000830186612bbd565b61368f60208301856129c7565b61369c6040830184612bbd565b949350505050565b600081905092915050565b60006136ba82612880565b6136c481856136a4565b93506136d481856020860161289c565b80840191505092915050565b60006136ec82856136af565b91506136f882846136af565b91508190509392505050565b600081519050613713816129f1565b92915050565b60006020828403121561372f5761372e6127bb565b5b600061373d84828501613704565b91505092915050565b600081519050919050565b600082825260208201905092915050565b600061376d82613746565b6137778185613751565b935061378781856020860161289c565b613790816128c6565b840191505092915050565b60006080820190506137b060008301876129c7565b6137bd60208301866129c7565b6137ca6040830185612bbd565b81810360608301526137dc8184613762565b905095945050505050565b6000815190506137f6816127f1565b92915050565b600060208284031215613812576138116127bb565b5b6000613820848285016137e7565b91505092915050565b7f4e487b7100000000000000000000000000000000000000000000000000000000600052601260045260246000fd5b600060408201905061386d60008301856129c7565b61387a6020830184612bbd565b9392505050565b600060408201905061389660008301856129c7565b6138a36020830184612a67565b939250505056fea2646970667358221220b0846a0862dd04ea7e32afe432ffa9ed2dec746aa2ed47a9e221a7b459a02d7b64736f6c634300081b0033",
  "linkReferences": {},
  "deployedLinkReferences": {}
}