{
  "_format": "hh-sol-artifact-1",
  "contractName": "MorseAcademy",
  "sourceName": "contracts/MorseAcademy.sol",
  "abi": [
    {
      "inputs": [
        {
          "internalType": "address",
          "name": "defaultAdmin",
          "type": "address"
        }
      ],
      "stateMutability": "nonpayable",
      "type": "constructor"
    },
    {
      "inputs": [],
      "name": "AccessControlBadConfirmation",
      "type": "error"
    },
    {
      "inputs": [
        {
          "internalType": "address",
          "name": "account",
          "type": "address"
        },
        {
          "internalType": "bytes32",
          "name": "neededRole",
          "type": "bytes32"
        }
      ],
      "name": "AccessControlUnauthorizedAccount",
      "type": "error"
    },
    {
      "inputs": [
        {
          "internalType": "address",
          "name": "sender",
          "type": "address"
        },
        {
          "internalType": "uint256",
          "name": "tokenId",
          "type": "uint256"
        },
        {
          "internalType": "address",
          "name": "owner",
          "type": "address"
        }
      ],
      "name": "ERC721IncorrectOwner",
      "type": "error"
    },
    {
      "inputs": [
        {
          "internalType": "address",
          "name": "operator",
          "type": "address"
        },
        {
          "internalType": "uint256",
          "name": "tokenId",
          "type": "uint256"
        }
      ],
      "name": "ERC721InsufficientApproval",
      "type": "error"
    },
    {
      "inputs": [
        {
          "internalType": "address",
          "name": "approver",
          "type": "address"
        }
      ],
      "name": "ERC721InvalidApprover",
      "type": "error"
    },
    {
      "inputs": [
        {
          "internalType": "address",
          "name": "operator",
          "type": "address"
        }
      ],
      "name": "ERC721InvalidOperator",
      "type": "error"
    },
    {
      "inputs": [
        {
          "internalType": "address",
          "name": "owner",
          "type": "address"
        }
      ],
      "name": "ERC721InvalidOwner",
      "type": "error"
    },
    {
      "inputs": [
        {
          "internalType": "address",
          "name": "receiver",
          "type": "address"
        }
      ],
      "name": "ERC721InvalidReceiver",
      "type": "error"
    },
    {
      "inputs": [
        {
          "internalType": "address",
          "name": "sender",
          "type": "address"
        }
      ],
      "name": "ERC721InvalidSender",
      "type": "error"
    },
    {
      "inputs": [
        {
          "internalType": "uint256",
          "name": "tokenId",
          "type": "uint256"
        }
      ],
      "name": "ERC721NonexistentToken",
      "type": "error"
    },
    {
      "anonymous": false,
      "inputs": [
        {
          "indexed": true,
          "internalType": "uint256",
          "name": "tokenId",
          "type": "uint256"
        },
        {
          "indexed": true,
          "internalType": "address",
          "name": "user",
          "type": "address"
        }
      ],
      "name": "AccessGranted",
      "type": "event"
    },
    {
      "anonymous": false,
      "inputs": [
        {
          "indexed": true,
          "internalType": "uint256",
          "name": "tokenId",
          "type": "uint256"
        },
        {
          "indexed": true,
          "internalType": "address",
          "name": "user",
          "type": "address"
        }
      ],
      "name": "AccessRevoked",
      "type": "event"
    },
    {
      "anonymous": false,
      "inputs": [
        {
          "indexed": true,
          "internalType": "address",
          "name": "owner",
          "type": "address"
        },
        {
          "indexed": true,
          "internalType": "address",
          "name": "approved",
          "type": "address"
        },
        {
          "indexed": true,
          "internalType": "uint256",
          "name": "tokenId",
          "type": "uint256"
        }
      ],
      "name": "Approval",
      "type": "event"
    },
    {
      "anonymous": false,
      "inputs": [
        {
          "indexed": true,
          "internalType": "address",
          "name": "owner",
          "type": "address"
        },
        {
          "indexed": true,
          "internalType": "address",
          "name": "operator",
          "type": "address"
        },
        {
          "indexed": false,
          "internalType": "bool",
          "name": "approved",
          "type": "bool"
        }
      ],
      "name": "ApprovalForAll",
      "type": "event"
    },
    {
      "anonymous": false,
      "inputs": [
        {
          "indexed": false,
          "internalType": "uint256",
          "name": "tokenId",
          "type": "uint256"
        },
        {
          "indexed": false,
          "internalType": "address",
          "name": "creator",
          "type": "address"
        },
        {
          "indexed": false,
          "internalType": "uint256",
          "name": "price",
          "type": "uint256"
        }
      ],
      "name": "ContentCreated",
      "type": "event"
    },
    {
      "anonymous": false,
      "inputs": [
        {
          "indexed": true,
          "internalType": "bytes32",
          "name": "role",
          "type": "bytes32"
        },
        {
          "indexed": true,
          "internalType": "bytes32",
          "name": "previousAdminRole",
          "type": "bytes32"
        },
        {
          "indexed": true,
          "internalType": "bytes32",
          "name": "newAdminRole",
          "type": "bytes32"
        }
      ],
      "name": "RoleAdminChanged",
      "type": "event"
    },
    {
      "anonymous": false,
      "inputs": [
        {
          "indexed": true,
          "internalType": "bytes32",
          "name": "role",
          "type": "bytes32"
        },
        {
          "indexed": true,
          "internalType": "address",
          "name": "account",
          "type": "address"
        },
        {
          "indexed": true,
          "internalType": "address",
          "name": "sender",
          "type": "address"
        }
      ],
      "name": "RoleGranted",
      "type": "event"
    },
    {
      "anonymous": false,
      "inputs": [
        {
          "indexed": true,
          "internalType": "bytes32",
          "name": "role",
          "type": "bytes32"
        },
        {
          "indexed": true,
          "internalType": "address",
          "name": "account",
          "type": "address"
        },
        {
          "indexed": true,
          "internalType": "address",
          "name": "sender",
          "type": "address"
        }
      ],
      "name": "RoleRevoked",
      "type": "event"
    },
    {
      "anonymous": false,
      "inputs": [
        {
          "indexed": true,
          "internalType": "address",
          "name": "from",
          "type": "address"
        },
        {
          "indexed": true,
          "internalType": "address",
          "name": "to",
          "type": "address"
        },
        {
          "indexed": true,
          "internalType": "uint256",
          "name": "tokenId",
          "type": "uint256"
        }
      ],
      "name": "Transfer",
      "type": "event"
    },
    {
      "inputs": [],
      "name": "CONTENT_CREATOR_ROLE",
      "outputs": [
        {
          "internalType": "bytes32",
          "name": "",
          "type": "bytes32"
        }
      ],
      "stateMutability": "view",
      "type": "function"
    },
    {
      "inputs": [],
      "name": "DEFAULT_ADMIN_ROLE",
      "outputs": [
        {
          "internalType": "bytes32",
          "name": "",
          "type": "bytes32"
        }
      ],
      "stateMutability": "view",
      "type": "function"
    },
    {
      "inputs": [
        {
          "internalType": "address",
          "name": "to",
          "type": "address"
        },
        {
          "internalType": "uint256",
          "name": "tokenId",
          "type": "uint256"
        }
      ],
      "name": "approve",
      "outputs": [],
      "stateMutability": "nonpayable",
      "type": "function"
    },
    {
      "inputs": [
        {
          "internalType": "address",
          "name": "owner",
          "type": "address"
        }
      ],
      "name": "balanceOf",
      "outputs": [
        {
          "internalType": "uint256",
          "name": "",
          "type": "uint256"
        }
      ],
      "stateMutability": "view",
      "type": "function"
    },
    {
      "inputs": [
        {
          "internalType": "uint256",
          "name": "",
          "type": "uint256"
        },
        {
          "internalType": "address",
          "name": "",
          "type": "address"
        }
      ],
      "name": "contentAccess",
      "outputs": [
        {
          "internalType": "bool",
          "name": "hasAccess",
          "type": "bool"
        }
      ],
      "stateMutability": "view",
      "type": "function"
    },
    {
      "inputs": [
        {
          "internalType": "uint256",
          "name": "",
          "type": "uint256"
        }
      ],
      "name": "contents",
      "outputs": [
        {
          "internalType": "address",
          "name": "creator",
          "type": "address"
        },
        {
          "internalType": "uint256",
          "name": "price",
          "type": "uint256"
        },
        {
          "internalType": "string",
          "name": "contentURI",
          "type": "string"
        }
      ],
      "stateMutability": "view",
      "type": "function"
    },
    {
      "inputs": [
        {
          "internalType": "uint256",
          "name": "price",
          "type": "uint256"
        },
        {
          "internalType": "string",
          "name": "contentURI",
          "type": "string"
        }
      ],
      "name": "createContent",
      "outputs": [
        {
          "internalType": "uint256",
          "name": "",
          "type": "uint256"
        }
      ],
      "stateMutability": "nonpayable",
      "type": "function"
    },
    {
      "inputs": [
        {
          "internalType": "uint256",
          "name": "tokenId",
          "type": "uint256"
        }
      ],
      "name": "getApproved",
      "outputs": [
        {
          "internalType": "address",
          "name": "",
          "type": "address"
        }
      ],
      "stateMutability": "view",
      "type": "function"
    },
    {
      "inputs": [
        {
          "internalType": "uint256",
          "name": "tokenId",
          "type": "uint256"
        }
      ],
      "name": "getContentURI",
      "outputs": [
        {
          "internalType": "string",
          "name": "",
          "type": "string"
        }
      ],
      "stateMutability": "view",
      "type": "function"
    },
    {
      "inputs": [
        {
          "internalType": "bytes32",
          "name": "role",
          "type": "bytes32"
        }
      ],
      "name": "getRoleAdmin",
      "outputs": [
        {
          "internalType": "bytes32",
          "name": "",
          "type": "bytes32"
        }
      ],
      "stateMutability": "view",
      "type": "function"
    },
    {
      "inputs": [
        {
          "internalType": "bytes32",
          "name": "role",
          "type": "bytes32"
        },
        {
          "internalType": "address",
          "name": "account",
          "type": "address"
        }
      ],
      "name": "grantRole",
      "outputs": [],
      "stateMutability": "nonpayable",
      "type": "function"
    },
    {
      "inputs": [
        {
          "internalType": "uint256",
          "name": "tokenId",
          "type": "uint256"
        },
        {
          "internalType": "address",
          "name": "user",
          "type": "address"
        }
      ],
      "name": "hasAccess",
      "outputs": [
        {
          "internalType": "bool",
          "name": "",
          "type": "bool"
        }
      ],
      "stateMutability": "view",
      "type": "function"
    },
    {
      "inputs": [
        {
          "internalType": "bytes32",
          "name": "role",
          "type": "bytes32"
        },
        {
          "internalType": "address",
          "name": "account",
          "type": "address"
        }
      ],
      "name": "hasRole",
      "outputs": [
        {
          "internalType": "bool",
          "name": "",
          "type": "bool"
        }
      ],
      "stateMutability": "view",
      "type": "function"
    },
    {
      "inputs": [
        {
          "internalType": "address",
          "name": "owner",
          "type": "address"
        },
        {
          "internalType": "address",
          "name": "operator",
          "type": "address"
        }
      ],
      "name": "isApprovedForAll",
      "outputs": [
        {
          "internalType": "bool",
          "name": "",
          "type": "bool"
        }
      ],
      "stateMutability": "view",
      "type": "function"
    },
    {
      "inputs": [],
      "name": "name",
      "outputs": [
        {
          "internalType": "string",
          "name": "",
          "type": "string"
        }
      ],
      "stateMutability": "view",
      "type": "function"
    },
    {
      "inputs": [
        {
          "internalType": "uint256",
          "name": "tokenId",
          "type": "uint256"
        }
      ],
      "name": "ownerOf",
      "outputs": [
        {
          "internalType": "address",
          "name": "",
          "type": "address"
        }
      ],
      "stateMutability": "view",
      "type": "function"
    },
    {
      "inputs": [
        {
          "internalType": "uint256",
          "name": "tokenId",
          "type": "uint256"
        }
      ],
      "name": "purchaseAccess",
      "outputs": [],
      "stateMutability": "payable",
      "type": "function"
    },
    {
      "inputs": [
        {
          "internalType": "bytes32",
          "name": "role",
          "type": "bytes32"
        },
        {
          "internalType": "address",
          "name": "callerConfirmation",
          "type": "address"
        }
      ],
      "name": "renounceRole",
      "outputs": [],
      "stateMutability": "nonpayable",
      "type": "function"
    },
    {
      "inputs": [
        {
          "internalType": "uint256",
          "name": "tokenId",
          "type": "uint256"
        },
        {
          "internalType": "address",
          "name": "user",
          "type": "address"
        }
      ],
      "name": "revokeAccess",
      "outputs": [],
      "stateMutability": "nonpayable",
      "type": "function"
    },
    {
      "inputs": [
        {
          "internalType": "bytes32",
          "name": "role",
          "type": "bytes32"
        },
        {
          "internalType": "address",
          "name": "account",
          "type": "address"
        }
      ],
      "name": "revokeRole",
      "outputs": [],
      "stateMutability": "nonpayable",
      "type": "function"
    },
    {
      "inputs": [
        {
          "internalType": "address",
          "name": "from",
          "type": "address"
        },
        {
          "internalType": "address",
          "name": "to",
          "type": "address"
        },
        {
          "internalType": "uint256",
          "name": "tokenId",
          "type": "uint256"
        }
      ],
      "name": "safeTransferFrom",
      "outputs": [],
      "stateMutability": "nonpayable",
      "type": "function"
    },
    {
      "inputs": [
        {
          "internalType": "address",
          "name": "from",
          "type": "address"
        },
        {
          "internalType": "address",
          "name": "to",
          "type": "address"
        },
        {
          "internalType": "uint256",
          "name": "tokenId",
          "type": "uint256"
        },
        {
          "internalType": "bytes",
          "name": "data",
          "type": "bytes"
        }
      ],
      "name": "safeTransferFrom",
      "outputs": [],
      "stateMutability": "nonpayable",
      "type": "function"
    },
    {
      "inputs": [
        {
          "internalType": "address",
          "name": "operator",
          "type": "address"
        },
        {
          "internalType": "bool",
          "name": "approved",
          "type": "bool"
        }
      ],
      "name": "setApprovalForAll",
      "outputs": [],
      "stateMutability": "nonpayable",
      "type": "function"
    },
    {
      "inputs": [
        {
          "internalType": "bytes4",
          "name": "interfaceId",
          "type": "bytes4"
        }
      ],
      "name": "supportsInterface",
      "outputs": [
        {
          "internalType": "bool",
          "name": "",
          "type": "bool"
        }
      ],
      "stateMutability": "view",
      "type": "function"
    },
    {
      "inputs": [],
      "name": "symbol",
      "outputs": [
        {
          "internalType": "string",
          "name": "",
          "type": "string"
        }
      ],
      "stateMutability": "view",
      "type": "function"
    },
    {
      "inputs": [
        {
          "internalType": "uint256",
          "name": "tokenId",
          "type": "uint256"
        }
      ],
      "name": "tokenURI",
      "outputs": [
        {
          "internalType": "string",
          "name": "",
          "type": "string"
        }
      ],
      "stateMutability": "view",
      "type": "function"
    },
    {
      "inputs": [
        {
          "internalType": "address",
          "name": "from",
          "type": "address"
        },
        {
          "internalType": "address",
          "name": "to",
          "type": "address"
        },
        {
          "internalType": "uint256",
          "name": "tokenId",
          "type": "uint256"
        }
      ],
      "name": "transferFrom",
      "outputs": [],
      "stateMutability": "nonpayable",
      "type": "function"
    }
  ],
  "bytecode": "0x608060405234801561001057600080fd5b50604051613dfc380380613dfc833981810160405281019061003291906102ae565b6040518060400160405280600c81526020017f4d6f72736541636164656d7900000000000000000000000000000000000000008152506040518060400160405280600381526020017f41434d000000000000000000000000000000000000000000000000000000000081525081600090816100ad919061052b565b5080600190816100bd919061052b565b5050506100d36000801b826100da60201b60201c565b50506105fd565b60006100ec83836101d860201b60201c565b6101cd5760016006600085815260200190815260200160002060000160008473ffffffffffffffffffffffffffffffffffffffff1673ffffffffffffffffffffffffffffffffffffffff16815260200190815260200160002060006101000a81548160ff02191690831515021790555061016a61024360201b60201c565b73ffffffffffffffffffffffffffffffffffffffff168273ffffffffffffffffffffffffffffffffffffffff16847f2f8788117e7eff1d82e926ec794901d17c78024a50270940304540a733656f0d60405160405180910390a4600190506101d2565b600090505b92915050565b60006006600084815260200190815260200160002060000160008373ffffffffffffffffffffffffffffffffffffffff1673ffffffffffffffffffffffffffffffffffffffff16815260200190815260200160002060009054906101000a900460ff16905092915050565b600033905090565b600080fd5b600073ffffffffffffffffffffffffffffffffffffffff82169050919050565b600061027b82610250565b9050919050565b61028b81610270565b811461029657600080fd5b50565b6000815190506102a881610282565b92915050565b6000602082840312156102c4576102c361024b565b5b60006102d284828501610299565b91505092915050565b600081519050919050565b7f4e487b7100000000000000000000000000000000000000000000000000000000600052604160045260246000fd5b7f4e487b7100000000000000000000000000000000000000000000000000000000600052602260045260246000fd5b6000600282049050600182168061035c57607f821691505b60208210810361036f5761036e610315565b5b50919050565b60008190508160005260206000209050919050565b60006020601f8301049050919050565b600082821b905092915050565b6000600883026103d77fffffffffffffffffffffffffffffffffffffffffffffffffffffffffffffffff8261039a565b6103e1868361039a565b95508019841693508086168417925050509392505050565b6000819050919050565b6000819050919050565b600061042861042361041e846103f9565b610403565b6103f9565b9050919050565b6000819050919050565b6104428361040d565b61045661044e8261042f565b8484546103a7565b825550505050565b600090565b61046b61045e565b610476818484610439565b505050565b5b8181101561049a5761048f600082610463565b60018101905061047c565b5050565b601f8211156104df576104b081610375565b6104b98461038a565b810160208510156104c8578190505b6104dc6104d48561038a565b83018261047b565b50505b505050565b600082821c905092915050565b6000610502600019846008026104e4565b1980831691505092915050565b600061051b83836104f1565b9150826002028217905092915050565b610534826102db565b67ffffffffffffffff81111561054d5761054c6102e6565b5b6105578254610344565b61056282828561049e565b600060209050601f8311600181146105955760008415610583578287015190505b61058d858261050f565b8655506105f5565b601f1984166105a386610375565b60005b828110156105cb578489015182556001820191506020850194506020810190506105a6565b868310156105e857848901516105e4601f8916826104f1565b8355505b6001600288020188555050505b505050505050565b6137f08061060c6000396000f3fe60806040526004361061019c5760003560e01c80637cc53570116100ec578063b88d4fde1161008a578063ced1419811610064578063ced1419814610629578063d547741f14610666578063d9a5ec1b1461068f578063e985e9c5146106b85761019c565b8063b88d4fde146105a7578063b91d0a2f146105d0578063c87b56dd146105ec5761019c565b8063a217fddf116100c6578063a217fddf146104d7578063a22cb46514610502578063b1bb2be01461052b578063b5ecf912146105685761019c565b80637cc535701461043257806391d148541461046f57806395d89b41146104ac5761019c565b8063248a9ca3116101595780633e5ffa75116101335780633e5ffa751461035257806342842e0e1461038f5780636352211e146103b857806370a08231146103f55761019c565b8063248a9ca3146102c35780632f2ff15d1461030057806336568abe146103295761019c565b806301ffc9a7146101a157806306fdde03146101de578063081812fc14610209578063095ea7b31461024657806322b561491461026f57806323b872dd1461029a575b600080fd5b3480156101ad57600080fd5b506101c860048036038101906101c391906127f3565b6106f5565b6040516101d5919061283b565b60405180910390f35b3480156101ea57600080fd5b506101f3610707565b60405161020091906128e6565b60405180910390f35b34801561021557600080fd5b50610230600480360381019061022b919061293e565b610799565b60405161023d91906129ac565b60405180910390f35b34801561025257600080fd5b5061026d600480360381019061026891906129f3565b6107b5565b005b34801561027b57600080fd5b506102846107cb565b6040516102919190612a4c565b60405180910390f35b3480156102a657600080fd5b506102c160048036038101906102bc9190612a67565b6107ef565b005b3480156102cf57600080fd5b506102ea60048036038101906102e59190612ae6565b6108f1565b6040516102f79190612a4c565b60405180910390f35b34801561030c57600080fd5b5061032760048036038101906103229190612b13565b610911565b005b34801561033557600080fd5b50610350600480360381019061034b9190612b13565b610933565b005b34801561035e57600080fd5b5061037960048036038101906103749190612b53565b6109ae565b604051610386919061283b565b60405180910390f35b34801561039b57600080fd5b506103b660048036038101906103b19190612a67565b6109e6565b005b3480156103c457600080fd5b506103df60048036038101906103da919061293e565b610a06565b6040516103ec91906129ac565b60405180910390f35b34801561040157600080fd5b5061041c60048036038101906104179190612b93565b610a18565b6040516104299190612bcf565b60405180910390f35b34801561043e57600080fd5b506104596004803603810190610454919061293e565b610ad2565b60405161046691906128e6565b60405180910390f35b34801561047b57600080fd5b5061049660048036038101906104919190612b13565b610c0b565b6040516104a3919061283b565b60405180910390f35b3480156104b857600080fd5b506104c1610c76565b6040516104ce91906128e6565b60405180910390f35b3480156104e357600080fd5b506104ec610d08565b6040516104f99190612a4c565b60405180910390f35b34801561050e57600080fd5b5061052960048036038101906105249190612c16565b610d0f565b005b34801561053757600080fd5b50610552600480360381019061054d9190612d8b565b610d25565b60405161055f9190612bcf565b60405180910390f35b34801561057457600080fd5b5061058f600480360381019061058a919061293e565b610e6a565b60405161059e93929190612de7565b60405180910390f35b3480156105b357600080fd5b506105ce60048036038101906105c99190612ec6565b610f3c565b005b6105ea60048036038101906105e5919061293e565b610f59565b005b3480156105f857600080fd5b50610613600480360381019061060e919061293e565b611214565b60405161062091906128e6565b60405180910390f35b34801561063557600080fd5b50610650600480360381019061064b9190612b53565b61127d565b60405161065d919061283b565b60405180910390f35b34801561067257600080fd5b5061068d60048036038101906106889190612b13565b611306565b005b34801561069b57600080fd5b506106b660048036038101906106b19190612b53565b611328565b005b3480156106c457600080fd5b506106df60048036038101906106da9190612f49565b61151f565b6040516106ec919061283b565b60405180910390f35b6000610700826115b3565b9050919050565b60606000805461071690612fb8565b80601f016020809104026020016040519081016040528092919081815260200182805461074290612fb8565b801561078f5780601f106107645761010080835404028352916020019161078f565b820191906000526020600020905b81548152906001019060200180831161077257829003601f168201915b5050505050905090565b60006107a48261162d565b506107ae826116b5565b9050919050565b6107c782826107c26116f2565b6116fa565b5050565b7f6b46296611f8ff3c0cf0ac1ab745d68c36a910c45b1b5f4e5f72b693d33667f581565b600073ffffffffffffffffffffffffffffffffffffffff168273ffffffffffffffffffffffffffffffffffffffff16036108615760006040517f64a0ae9200000000000000000000000000000000000000000000000000000000815260040161085891906129ac565b60405180910390fd5b600061087583836108706116f2565b61170c565b90508373ffffffffffffffffffffffffffffffffffffffff168173ffffffffffffffffffffffffffffffffffffffff16146108eb578382826040517f64283d7b0000000000000000000000000000000000000000000000000000000081526004016108e293929190612fe9565b60405180910390fd5b50505050565b600060066000838152602001908152602001600020600101549050919050565b61091a826108f1565b61092381611926565b61092d838361193a565b50505050565b61093b6116f2565b73ffffffffffffffffffffffffffffffffffffffff168173ffffffffffffffffffffffffffffffffffffffff161461099f576040517f6697b23200000000000000000000000000000000000000000000000000000000815260040160405180910390fd5b6109a98282611a2c565b505050565b6009602052816000526040600020602052806000526040600020600091509150508060000160009054906101000a900460ff16905081565b610a0183838360405180602001604052806000815250610f3c565b505050565b6000610a118261162d565b9050919050565b60008073ffffffffffffffffffffffffffffffffffffffff168273ffffffffffffffffffffffffffffffffffffffff1603610a8b5760006040517f89c62b64000000000000000000000000000000000000000000000000000000008152600401610a8291906129ac565b60405180910390fd5b600360008373ffffffffffffffffffffffffffffffffffffffff1673ffffffffffffffffffffffffffffffffffffffff168152602001908152602001600020549050919050565b6060610add82611b1f565b610b1c576040517f08c379a0000000000000000000000000000000000000000000000000000000008152600401610b139061306c565b60405180910390fd5b610b26823361127d565b610b65576040517f08c379a0000000000000000000000000000000000000000000000000000000008152600401610b5c906130fe565b60405180910390fd5b600860008381526020019081526020016000206002018054610b8690612fb8565b80601f0160208091040260200160405190810160405280929190818152602001828054610bb290612fb8565b8015610bff5780601f10610bd457610100808354040283529160200191610bff565b820191906000526020600020905b815481529060010190602001808311610be257829003601f168201915b50505050509050919050565b60006006600084815260200190815260200160002060000160008373ffffffffffffffffffffffffffffffffffffffff1673ffffffffffffffffffffffffffffffffffffffff16815260200190815260200160002060009054906101000a900460ff16905092915050565b606060018054610c8590612fb8565b80601f0160208091040260200160405190810160405280929190818152602001828054610cb190612fb8565b8015610cfe5780601f10610cd357610100808354040283529160200191610cfe565b820191906000526020600020905b815481529060010190602001808311610ce157829003601f168201915b5050505050905090565b6000801b81565b610d21610d1a6116f2565b8383611bac565b5050565b60007f6b46296611f8ff3c0cf0ac1ab745d68c36a910c45b1b5f4e5f72b693d33667f5610d5181611926565b600060076000815480929190610d669061314d565b919050559050610d763382611d1b565b60405180606001604052803373ffffffffffffffffffffffffffffffffffffffff168152602001868152602001858152506008600083815260200190815260200160002060008201518160000160006101000a81548173ffffffffffffffffffffffffffffffffffffffff021916908373ffffffffffffffffffffffffffffffffffffffff160217905550602082015181600101556040820151816002019081610e209190613341565b509050507f2344d0e4d33c59dfc9275ae9cecc6eaa919eb62e9584a905caa648b662c1da93813387604051610e5793929190613413565b60405180910390a1809250505092915050565b60086020528060005260406000206000915090508060000160009054906101000a900473ffffffffffffffffffffffffffffffffffffffff1690806001015490806002018054610eb990612fb8565b80601f0160208091040260200160405190810160405280929190818152602001828054610ee590612fb8565b8015610f325780601f10610f0757610100808354040283529160200191610f32565b820191906000526020600020905b815481529060010190602001808311610f1557829003601f168201915b5050505050905083565b610f478484846107ef565b610f5384848484611d39565b50505050565b610f6281611b1f565b610fa1576040517f08c379a0000000000000000000000000000000000000000000000000000000008152600401610f989061306c565b60405180910390fd5b6000600860008381526020019081526020016000206040518060600160405290816000820160009054906101000a900473ffffffffffffffffffffffffffffffffffffffff1673ffffffffffffffffffffffffffffffffffffffff1673ffffffffffffffffffffffffffffffffffffffff1681526020016001820154815260200160028201805461103190612fb8565b80601f016020809104026020016040519081016040528092919081815260200182805461105d90612fb8565b80156110aa5780601f1061107f576101008083540402835291602001916110aa565b820191906000526020600020905b81548152906001019060200180831161108d57829003601f168201915b505050505081525050905080602001513410156110fc576040517f08c379a00000000000000000000000000000000000000000000000000000000081526004016110f390613496565b60405180910390fd5b6040518060200160405280600115158152506009600084815260200190815260200160002060003373ffffffffffffffffffffffffffffffffffffffff1673ffffffffffffffffffffffffffffffffffffffff16815260200190815260200160002060008201518160000160006101000a81548160ff021916908315150217905550905050806000015173ffffffffffffffffffffffffffffffffffffffff166108fc349081150290604051600060405180830381858888f193505050501580156111cb573d6000803e3d6000fd5b503373ffffffffffffffffffffffffffffffffffffffff16827f3c3a9147a1fc73dd51a32f4d10c43d457e8cb826eb6f35cac6349eb965ba82b460405160405180910390a35050565b606061121f8261162d565b50600061122a611ef0565b9050600081511161124a5760405180602001604052806000815250611275565b8061125484611f2d565b6040516020016112659291906134f2565b6040516020818303038152906040525b915050919050565b6000806009600085815260200190815260200160002060008473ffffffffffffffffffffffffffffffffffffffff1673ffffffffffffffffffffffffffffffffffffffff1681526020019081526020016000206040518060200160405290816000820160009054906101000a900460ff1615151515815250509050806000015191505092915050565b61130f826108f1565b61131881611926565b6113228383611a2c565b50505050565b61133182611b1f565b611370576040517f08c379a00000000000000000000000000000000000000000000000000000000081526004016113679061306c565b60405180910390fd5b6008600083815260200190815260200160002060000160009054906101000a900473ffffffffffffffffffffffffffffffffffffffff1673ffffffffffffffffffffffffffffffffffffffff163373ffffffffffffffffffffffffffffffffffffffff1614611414576040517f08c379a000000000000000000000000000000000000000000000000000000000815260040161140b90613588565b60405180910390fd5b60006009600084815260200190815260200160002060008373ffffffffffffffffffffffffffffffffffffffff1673ffffffffffffffffffffffffffffffffffffffff16815260200190815260200160002090508060000160009054906101000a900460ff166114b9576040517f08c379a00000000000000000000000000000000000000000000000000000000081526004016114b0906135f4565b60405180910390fd5b60008160000160006101000a81548160ff0219169083151502179055508173ffffffffffffffffffffffffffffffffffffffff16837f125883b94692baebecad9f111ed97ffa626523bbbadc6b0ef85ee1b56b9e52d560405160405180910390a3505050565b6000600560008473ffffffffffffffffffffffffffffffffffffffff1673ffffffffffffffffffffffffffffffffffffffff16815260200190815260200160002060008373ffffffffffffffffffffffffffffffffffffffff1673ffffffffffffffffffffffffffffffffffffffff16815260200190815260200160002060009054906101000a900460ff16905092915050565b60007f7965db0b000000000000000000000000000000000000000000000000000000007bffffffffffffffffffffffffffffffffffffffffffffffffffffffff1916827bffffffffffffffffffffffffffffffffffffffffffffffffffffffff19161480611626575061162582611ffb565b5b9050919050565b600080611639836120dd565b9050600073ffffffffffffffffffffffffffffffffffffffff168173ffffffffffffffffffffffffffffffffffffffff16036116ac57826040517f7e2732890000000000000000000000000000000000000000000000000000000081526004016116a39190612bcf565b60405180910390fd5b80915050919050565b60006004600083815260200190815260200160002060009054906101000a900473ffffffffffffffffffffffffffffffffffffffff169050919050565b600033905090565b611707838383600161211a565b505050565b600080611718846120dd565b9050600073ffffffffffffffffffffffffffffffffffffffff168373ffffffffffffffffffffffffffffffffffffffff161461175a576117598184866122df565b5b600073ffffffffffffffffffffffffffffffffffffffff168173ffffffffffffffffffffffffffffffffffffffff16146117eb5761179c60008560008061211a565b6001600360008373ffffffffffffffffffffffffffffffffffffffff1673ffffffffffffffffffffffffffffffffffffffff168152602001908152602001600020600082825403925050819055505b600073ffffffffffffffffffffffffffffffffffffffff168573ffffffffffffffffffffffffffffffffffffffff161461186e576001600360008773ffffffffffffffffffffffffffffffffffffffff1673ffffffffffffffffffffffffffffffffffffffff168152602001908152602001600020600082825401925050819055505b846002600086815260200190815260200160002060006101000a81548173ffffffffffffffffffffffffffffffffffffffff021916908373ffffffffffffffffffffffffffffffffffffffff160217905550838573ffffffffffffffffffffffffffffffffffffffff168273ffffffffffffffffffffffffffffffffffffffff167fddf252ad1be2c89b69c2b068fc378daa952ba7f163c4a11628f55a4df523b3ef60405160405180910390a4809150509392505050565b611937816119326116f2565b6123a3565b50565b60006119468383610c0b565b611a215760016006600085815260200190815260200160002060000160008473ffffffffffffffffffffffffffffffffffffffff1673ffffffffffffffffffffffffffffffffffffffff16815260200190815260200160002060006101000a81548160ff0219169083151502179055506119be6116f2565b73ffffffffffffffffffffffffffffffffffffffff168273ffffffffffffffffffffffffffffffffffffffff16847f2f8788117e7eff1d82e926ec794901d17c78024a50270940304540a733656f0d60405160405180910390a460019050611a26565b600090505b92915050565b6000611a388383610c0b565b15611b145760006006600085815260200190815260200160002060000160008473ffffffffffffffffffffffffffffffffffffffff1673ffffffffffffffffffffffffffffffffffffffff16815260200190815260200160002060006101000a81548160ff021916908315150217905550611ab16116f2565b73ffffffffffffffffffffffffffffffffffffffff168273ffffffffffffffffffffffffffffffffffffffff16847ff6391f5c32d9c69d2a47ea670b442974b53935d1edc7fd64eb21e047a839171b60405160405180910390a460019050611b19565b600090505b92915050565b60003073ffffffffffffffffffffffffffffffffffffffff16636352211e836040518263ffffffff1660e01b8152600401611b5a9190612bcf565b602060405180830381865afa925050508015611b9457506040513d601f19601f82011682018060405250810190611b919190613629565b60015b611ba15760009050611ba7565b60019150505b919050565b600073ffffffffffffffffffffffffffffffffffffffff168273ffffffffffffffffffffffffffffffffffffffff1603611c1d57816040517f5b08ba18000000000000000000000000000000000000000000000000000000008152600401611c1491906129ac565b60405180910390fd5b80600560008573ffffffffffffffffffffffffffffffffffffffff1673ffffffffffffffffffffffffffffffffffffffff16815260200190815260200160002060008473ffffffffffffffffffffffffffffffffffffffff1673ffffffffffffffffffffffffffffffffffffffff16815260200190815260200160002060006101000a81548160ff0219169083151502179055508173ffffffffffffffffffffffffffffffffffffffff168373ffffffffffffffffffffffffffffffffffffffff167f17307eab39ab6107e8899845ad3d59bd9653f200f220920489ca2b5937696c3183604051611d0e919061283b565b60405180910390a3505050565b611d358282604051806020016040528060008152506123f4565b5050565b60008373ffffffffffffffffffffffffffffffffffffffff163b1115611eea578273ffffffffffffffffffffffffffffffffffffffff1663150b7a02611d7d6116f2565b8685856040518563ffffffff1660e01b8152600401611d9f94939291906136ab565b6020604051808303816000875af1925050508015611ddb57506040513d601f19601f82011682018060405250810190611dd8919061370c565b60015b611e5f573d8060008114611e0b576040519150601f19603f3d011682016040523d82523d6000602084013e611e10565b606091505b506000815103611e5757836040517f64a0ae92000000000000000000000000000000000000000000000000000000008152600401611e4e91906129ac565b60405180910390fd5b805181602001fd5b63150b7a0260e01b7bffffffffffffffffffffffffffffffffffffffffffffffffffffffff1916817bffffffffffffffffffffffffffffffffffffffffffffffffffffffff191614611ee857836040517f64a0ae92000000000000000000000000000000000000000000000000000000008152600401611edf91906129ac565b60405180910390fd5b505b50505050565b60606040518060400160405280600781526020017f697066733a2f2f00000000000000000000000000000000000000000000000000815250905090565b606060006001611f3c84612410565b01905060008167ffffffffffffffff811115611f5b57611f5a612c60565b5b6040519080825280601f01601f191660200182016040528015611f8d5781602001600182028036833780820191505090505b509050600082602001820190505b600115611ff0578080600190039150507f3031323334353637383961626364656600000000000000000000000000000000600a86061a8153600a8581611fe457611fe3613739565b5b04945060008503611f9b575b819350505050919050565b60007f80ac58cd000000000000000000000000000000000000000000000000000000007bffffffffffffffffffffffffffffffffffffffffffffffffffffffff1916827bffffffffffffffffffffffffffffffffffffffffffffffffffffffff191614806120c657507f5b5e139f000000000000000000000000000000000000000000000000000000007bffffffffffffffffffffffffffffffffffffffffffffffffffffffff1916827bffffffffffffffffffffffffffffffffffffffffffffffffffffffff1916145b806120d657506120d582612563565b5b9050919050565b60006002600083815260200190815260200160002060009054906101000a900473ffffffffffffffffffffffffffffffffffffffff169050919050565b80806121535750600073ffffffffffffffffffffffffffffffffffffffff168273ffffffffffffffffffffffffffffffffffffffff1614155b156122875760006121638461162d565b9050600073ffffffffffffffffffffffffffffffffffffffff168373ffffffffffffffffffffffffffffffffffffffff16141580156121ce57508273ffffffffffffffffffffffffffffffffffffffff168173ffffffffffffffffffffffffffffffffffffffff1614155b80156121e157506121df818461151f565b155b1561222357826040517fa9fbf51f00000000000000000000000000000000000000000000000000000000815260040161221a91906129ac565b60405180910390fd5b811561228557838573ffffffffffffffffffffffffffffffffffffffff168273ffffffffffffffffffffffffffffffffffffffff167f8c5be1e5ebec7d5bd14f71427d1e84f3dd0314c0f7b2291e5b200ac8c7c3b92560405160405180910390a45b505b836004600085815260200190815260200160002060006101000a81548173ffffffffffffffffffffffffffffffffffffffff021916908373ffffffffffffffffffffffffffffffffffffffff16021790555050505050565b6122ea8383836125cd565b61239e57600073ffffffffffffffffffffffffffffffffffffffff168373ffffffffffffffffffffffffffffffffffffffff160361235f57806040517f7e2732890000000000000000000000000000000000000000000000000000000081526004016123569190612bcf565b60405180910390fd5b81816040517f177e802f000000000000000000000000000000000000000000000000000000008152600401612395929190613768565b60405180910390fd5b505050565b6123ad8282610c0b565b6123f05780826040517fe2517d3f0000000000000000000000000000000000000000000000000000000081526004016123e7929190613791565b60405180910390fd5b5050565b6123fe838361268e565b61240b6000848484611d39565b505050565b600080600090507a184f03e93ff9f4daa797ed6e38ed64bf6a1f010000000000000000831061246e577a184f03e93ff9f4daa797ed6e38ed64bf6a1f010000000000000000838161246457612463613739565b5b0492506040810190505b6d04ee2d6d415b85acef810000000083106124ab576d04ee2d6d415b85acef810000000083816124a1576124a0613739565b5b0492506020810190505b662386f26fc1000083106124da57662386f26fc1000083816124d0576124cf613739565b5b0492506010810190505b6305f5e1008310612503576305f5e10083816124f9576124f8613739565b5b0492506008810190505b612710831061252857612710838161251e5761251d613739565b5b0492506004810190505b6064831061254b576064838161254157612540613739565b5b0492506002810190505b600a831061255a576001810190505b80915050919050565b60007f01ffc9a7000000000000000000000000000000000000000000000000000000007bffffffffffffffffffffffffffffffffffffffffffffffffffffffff1916827bffffffffffffffffffffffffffffffffffffffffffffffffffffffff1916149050919050565b60008073ffffffffffffffffffffffffffffffffffffffff168373ffffffffffffffffffffffffffffffffffffffff161415801561268557508273ffffffffffffffffffffffffffffffffffffffff168473ffffffffffffffffffffffffffffffffffffffff1614806126465750612645848461151f565b5b8061268457508273ffffffffffffffffffffffffffffffffffffffff1661266c836116b5565b73ffffffffffffffffffffffffffffffffffffffff16145b5b90509392505050565b600073ffffffffffffffffffffffffffffffffffffffff168273ffffffffffffffffffffffffffffffffffffffff16036127005760006040517f64a0ae920000000000000000000000000000000000000000000000000000000081526004016126f791906129ac565b60405180910390fd5b600061270e8383600061170c565b9050600073ffffffffffffffffffffffffffffffffffffffff168173ffffffffffffffffffffffffffffffffffffffff16146127825760006040517f73c6ac6e00000000000000000000000000000000000000000000000000000000815260040161277991906129ac565b60405180910390fd5b505050565b6000604051905090565b600080fd5b600080fd5b60007fffffffff0000000000000000000000000000000000000000000000000000000082169050919050565b6127d08161279b565b81146127db57600080fd5b50565b6000813590506127ed816127c7565b92915050565b60006020828403121561280957612808612791565b5b6000612817848285016127de565b91505092915050565b60008115159050919050565b61283581612820565b82525050565b6000602082019050612850600083018461282c565b92915050565b600081519050919050565b600082825260208201905092915050565b60005b83811015612890578082015181840152602081019050612875565b60008484015250505050565b6000601f19601f8301169050919050565b60006128b882612856565b6128c28185612861565b93506128d2818560208601612872565b6128db8161289c565b840191505092915050565b6000602082019050818103600083015261290081846128ad565b905092915050565b6000819050919050565b61291b81612908565b811461292657600080fd5b50565b60008135905061293881612912565b92915050565b60006020828403121561295457612953612791565b5b600061296284828501612929565b91505092915050565b600073ffffffffffffffffffffffffffffffffffffffff82169050919050565b60006129968261296b565b9050919050565b6129a68161298b565b82525050565b60006020820190506129c1600083018461299d565b92915050565b6129d08161298b565b81146129db57600080fd5b50565b6000813590506129ed816129c7565b92915050565b60008060408385031215612a0a57612a09612791565b5b6000612a18858286016129de565b9250506020612a2985828601612929565b9150509250929050565b6000819050919050565b612a4681612a33565b82525050565b6000602082019050612a616000830184612a3d565b92915050565b600080600060608486031215612a8057612a7f612791565b5b6000612a8e868287016129de565b9350506020612a9f868287016129de565b9250506040612ab086828701612929565b9150509250925092565b612ac381612a33565b8114612ace57600080fd5b50565b600081359050612ae081612aba565b92915050565b600060208284031215612afc57612afb612791565b5b6000612b0a84828501612ad1565b91505092915050565b60008060408385031215612b2a57612b29612791565b5b6000612b3885828601612ad1565b9250506020612b49858286016129de565b9150509250929050565b60008060408385031215612b6a57612b69612791565b5b6000612b7885828601612929565b9250506020612b89858286016129de565b9150509250929050565b600060208284031215612ba957612ba8612791565b5b6000612bb7848285016129de565b91505092915050565b612bc981612908565b82525050565b6000602082019050612be46000830184612bc0565b92915050565b612bf381612820565b8114612bfe57600080fd5b50565b600081359050612c1081612bea565b92915050565b60008060408385031215612c2d57612c2c612791565b5b6000612c3b858286016129de565b9250506020612c4c85828601612c01565b9150509250929050565b600080fd5b600080fd5b7f4e487b7100000000000000000000000000000000000000000000000000000000600052604160045260246000fd5b612c988261289c565b810181811067ffffffffffffffff82111715612cb757612cb6612c60565b5b80604052505050565b6000612cca612787565b9050612cd68282612c8f565b919050565b600067ffffffffffffffff821115612cf657612cf5612c60565b5b612cff8261289c565b9050602081019050919050565b82818337600083830152505050565b6000612d2e612d2984612cdb565b612cc0565b905082815260208101848484011115612d4a57612d49612c5b565b5b612d55848285612d0c565b509392505050565b600082601f830112612d7257612d71612c56565b5b8135612d82848260208601612d1b565b91505092915050565b60008060408385031215612da257612da1612791565b5b6000612db085828601612929565b925050602083013567ffffffffffffffff811115612dd157612dd0612796565b5b612ddd85828601612d5d565b9150509250929050565b6000606082019050612dfc600083018661299d565b612e096020830185612bc0565b8181036040830152612e1b81846128ad565b9050949350505050565b600067ffffffffffffffff821115612e4057612e3f612c60565b5b612e498261289c565b9050602081019050919050565b6000612e69612e6484612e25565b612cc0565b905082815260208101848484011115612e8557612e84612c5b565b5b612e90848285612d0c565b509392505050565b600082601f830112612ead57612eac612c56565b5b8135612ebd848260208601612e56565b91505092915050565b60008060008060808587031215612ee057612edf612791565b5b6000612eee878288016129de565b9450506020612eff878288016129de565b9350506040612f1087828801612929565b925050606085013567ffffffffffffffff811115612f3157612f30612796565b5b612f3d87828801612e98565b91505092959194509250565b60008060408385031215612f6057612f5f612791565b5b6000612f6e858286016129de565b9250506020612f7f858286016129de565b9150509250929050565b7f4e487b7100000000000000000000000000000000000000000000000000000000600052602260045260246000fd5b60006002820490506001821680612fd057607f821691505b602082108103612fe357612fe2612f89565b5b50919050565b6000606082019050612ffe600083018661299d565b61300b6020830185612bc0565b613018604083018461299d565b949350505050565b7f436f6e74656e7420646f6573206e6f7420657869737400000000000000000000600082015250565b6000613056601683612861565b915061306182613020565b602082019050919050565b6000602082019050818103600083015261308581613049565b9050919050565b7f596f7520646f206e6f7420686176652061636365737320746f2074686973206360008201527f6f6e74656e740000000000000000000000000000000000000000000000000000602082015250565b60006130e8602683612861565b91506130f38261308c565b604082019050919050565b60006020820190508181036000830152613117816130db565b9050919050565b7f4e487b7100000000000000000000000000000000000000000000000000000000600052601160045260246000fd5b600061315882612908565b91507fffffffffffffffffffffffffffffffffffffffffffffffffffffffffffffffff820361318a5761318961311e565b5b600182019050919050565b60008190508160005260206000209050919050565b60006020601f8301049050919050565b600082821b905092915050565b6000600883026131f77fffffffffffffffffffffffffffffffffffffffffffffffffffffffffffffffff826131ba565b61320186836131ba565b95508019841693508086168417925050509392505050565b6000819050919050565b600061323e61323961323484612908565b613219565b612908565b9050919050565b6000819050919050565b61325883613223565b61326c61326482613245565b8484546131c7565b825550505050565b600090565b613281613274565b61328c81848461324f565b505050565b5b818110156132b0576132a5600082613279565b600181019050613292565b5050565b601f8211156132f5576132c681613195565b6132cf846131aa565b810160208510156132de578190505b6132f26132ea856131aa565b830182613291565b50505b505050565b600082821c905092915050565b6000613318600019846008026132fa565b1980831691505092915050565b60006133318383613307565b9150826002028217905092915050565b61334a82612856565b67ffffffffffffffff81111561336357613362612c60565b5b61336d8254612fb8565b6133788282856132b4565b600060209050601f8311600181146133ab5760008415613399578287015190505b6133a38582613325565b86555061340b565b601f1984166133b986613195565b60005b828110156133e1578489015182556001820191506020850194506020810190506133bc565b868310156133fe57848901516133fa601f891682613307565b8355505b6001600288020188555050505b505050505050565b60006060820190506134286000830186612bc0565b613435602083018561299d565b6134426040830184612bc0565b949350505050565b7f496e73756666696369656e74207061796d656e74000000000000000000000000600082015250565b6000613480601483612861565b915061348b8261344a565b602082019050919050565b600060208201905081810360008301526134af81613473565b9050919050565b600081905092915050565b60006134cc82612856565b6134d681856134b6565b93506134e6818560208601612872565b80840191505092915050565b60006134fe82856134c1565b915061350a82846134c1565b91508190509392505050565b7f4f6e6c792074686520636f6e74656e742063726561746f722063616e2072657660008201527f6f6b652061636365737300000000000000000000000000000000000000000000602082015250565b6000613572602a83612861565b915061357d82613516565b604082019050919050565b600060208201905081810360008301526135a181613565565b9050919050565b7f5573657220646f6573206e6f7420686176652061636365737300000000000000600082015250565b60006135de601983612861565b91506135e9826135a8565b602082019050919050565b6000602082019050818103600083015261360d816135d1565b9050919050565b600081519050613623816129c7565b92915050565b60006020828403121561363f5761363e612791565b5b600061364d84828501613614565b91505092915050565b600081519050919050565b600082825260208201905092915050565b600061367d82613656565b6136878185613661565b9350613697818560208601612872565b6136a08161289c565b840191505092915050565b60006080820190506136c0600083018761299d565b6136cd602083018661299d565b6136da6040830185612bc0565b81810360608301526136ec8184613672565b905095945050505050565b600081519050613706816127c7565b92915050565b60006020828403121561372257613721612791565b5b6000613730848285016136f7565b91505092915050565b7f4e487b7100000000000000000000000000000000000000000000000000000000600052601260045260246000fd5b600060408201905061377d600083018561299d565b61378a6020830184612bc0565b9392505050565b60006040820190506137a6600083018561299d565b6137b36020830184612a3d565b939250505056fea26469706673582212202051e5f7f92d695e419eb44af90cb90e7f33d1a2ef856ca0a685a18f6ca78f2f64736f6c634300081b0033",
  "linkReferences": {},
  "deployedLinkReferences": {}
}